{
  "address": "0x49072199Ca43207500463bf1f562eFe32ce160Df",
  "abi": [
    {
      "inputs": [],
      "stateMutability": "nonpayable",
      "type": "constructor"
    },
    {
      "inputs": [
        {
          "internalType": "address",
          "name": "owner",
          "type": "address"
        }
      ],
      "name": "OwnableInvalidOwner",
      "type": "error"
    },
    {
      "inputs": [
        {
          "internalType": "address",
          "name": "account",
          "type": "address"
        }
      ],
      "name": "OwnableUnauthorizedAccount",
      "type": "error"
    },
    {
      "anonymous": false,
      "inputs": [
        {
          "indexed": true,
          "internalType": "address",
          "name": "previousOwner",
          "type": "address"
        },
        {
          "indexed": true,
          "internalType": "address",
          "name": "newOwner",
          "type": "address"
        }
      ],
      "name": "OwnershipTransferred",
      "type": "event"
    },
    {
      "anonymous": false,
      "inputs": [
        {
          "indexed": true,
          "internalType": "uint256",
          "name": "id",
          "type": "uint256"
        },
        {
          "indexed": false,
          "internalType": "address",
          "name": "from",
          "type": "address"
        },
        {
          "indexed": false,
          "internalType": "uint256",
          "name": "timestamp",
          "type": "uint256"
        },
        {
          "indexed": false,
          "internalType": "string",
          "name": "name",
          "type": "string"
        },
        {
          "indexed": false,
          "internalType": "string",
          "name": "message",
          "type": "string"
        }
      ],
      "name": "newMemo",
      "type": "event"
    },
    {
      "inputs": [
        {
          "internalType": "uint256",
          "name": "",
          "type": "uint256"
        }
      ],
      "name": "Memos",
      "outputs": [
        {
          "internalType": "uint256",
          "name": "id",
          "type": "uint256"
        },
        {
          "internalType": "address",
          "name": "from",
          "type": "address"
        },
        {
          "internalType": "uint256",
          "name": "timestamp",
          "type": "uint256"
        },
        {
          "internalType": "string",
          "name": "name",
          "type": "string"
        },
        {
          "internalType": "string",
          "name": "message",
          "type": "string"
        }
      ],
      "stateMutability": "view",
      "type": "function"
    },
    {
      "inputs": [
        {
          "internalType": "string",
          "name": "_name",
          "type": "string"
        },
        {
          "internalType": "string",
          "name": "_message",
          "type": "string"
        }
      ],
      "name": "buyCoffee",
      "outputs": [],
      "stateMutability": "payable",
      "type": "function"
    },
    {
      "inputs": [],
      "name": "getMemos",
      "outputs": [
        {
          "components": [
            {
              "internalType": "uint256",
              "name": "id",
              "type": "uint256"
            },
            {
              "internalType": "address",
              "name": "from",
              "type": "address"
            },
            {
              "internalType": "uint256",
              "name": "timestamp",
              "type": "uint256"
            },
            {
              "internalType": "string",
              "name": "name",
              "type": "string"
            },
            {
              "internalType": "string",
              "name": "message",
              "type": "string"
            }
          ],
          "internalType": "struct Memo[]",
          "name": "",
          "type": "tuple[]"
        }
      ],
      "stateMutability": "view",
      "type": "function"
    },
    {
      "inputs": [],
      "name": "memoCount",
      "outputs": [
        {
          "internalType": "uint256",
          "name": "",
          "type": "uint256"
        }
      ],
      "stateMutability": "view",
      "type": "function"
    },
    {
      "inputs": [],
      "name": "owner",
      "outputs": [
        {
          "internalType": "address",
          "name": "",
          "type": "address"
        }
      ],
      "stateMutability": "view",
      "type": "function"
    },
    {
      "inputs": [],
      "name": "renounceOwnership",
      "outputs": [],
      "stateMutability": "nonpayable",
      "type": "function"
    },
    {
      "inputs": [
        {
          "internalType": "address",
          "name": "newOwner",
          "type": "address"
        }
      ],
      "name": "transferOwnership",
      "outputs": [],
      "stateMutability": "nonpayable",
      "type": "function"
    },
    {
      "inputs": [],
      "name": "withdrawTip",
      "outputs": [],
      "stateMutability": "nonpayable",
      "type": "function"
    }
  ],
  "transactionHash": "0x90df069158868e2499a168e1a722a7d5b0e0422eb44c306cd5fc34860c4dd181",
  "args": [],
  "numDeployments": 1,
  "solcInputHash": "93824cdf78dd6b2d7910f6f0ef95d5d7",
  "bytecode": "0x608060405234801561001057600080fd5b50338061003757604051631e4fbdf760e01b81526000600482015260240160405180910390fd5b61004081610046565b50610096565b600080546001600160a01b038381166001600160a01b0319831681178455604051919092169283917f8be0079c531659141344cd1fd0a4f28419497f9722a3daafe3b4186f6b6457e09190a35050565b610c45806100a56000396000f3fe60806040526004361061007b5760003560e01c80638da5cb5b1161004e5780638da5cb5b14610106578063d98011461461012e578063f2fde38b14610143578063fa239b1e1461016357600080fd5b8063204206e114610080578063715018a61461009557806376ad31e5146100aa578063865c5172146100e4575b600080fd5b61009361008e36600461081f565b610187565b005b3480156100a157600080fd5b50610093610358565b3480156100b657600080fd5b506100ca6100c536600461088b565b61036c565b6040516100db9594939291906108ea565b60405180910390f35b3480156100f057600080fd5b506100f96104cc565b6040516100db9190610935565b34801561011257600080fd5b506000546040516001600160a01b0390911681526020016100db565b34801561013a57600080fd5b5061009361067a565b34801561014f57600080fd5b5061009361015e3660046109e8565b61071e565b34801561016f57600080fd5b5061017960025481565b6040519081526020016100db565b600034116101dc5760405162461bcd60e51b815260206004820152601d60248201527f416d6f756e74206d7573742062652067726561746572207468616e203000000060448201526064015b60405180910390fd5b600280549060006101ec83610a18565b91905055506000600254905060016040518060a00160405280838152602001336001600160a01b0316815260200142815260200187878080601f016020809104026020016040519081016040528093929190818152602001838380828437600092019190915250505090825250604080516020601f880181900481028201810190925286815291810191908790879081908401838280828437600092018290525093909452505083546001808201865594825260209182902084516005909202019081559083015193810180546001600160a01b0319166001600160a01b03909516949094179093555060408101516002830155606081015190919060038201906102f79082610ade565b506080820151600482019061030c9082610ade565b505050807f7adb19d1ada23c5c1d4b03ed5b176c955888383e39b348e1da06de458125f07233428888888860405161034996959493929190610bc7565b60405180910390a25050505050565b610360610759565b61036a6000610786565b565b6001818154811061037c57600080fd5b600091825260209091206005909102018054600182015460028301546003840180549395506001600160a01b039092169390929091906103bb90610a55565b80601f01602080910402602001604051908101604052809291908181526020018280546103e790610a55565b80156104345780601f1061040957610100808354040283529160200191610434565b820191906000526020600020905b81548152906001019060200180831161041757829003601f168201915b50505050509080600401805461044990610a55565b80601f016020809104026020016040519081016040528092919081815260200182805461047590610a55565b80156104c25780601f10610497576101008083540402835291602001916104c2565b820191906000526020600020905b8154815290600101906020018083116104a557829003601f168201915b5050505050905085565b60606001805480602002602001604051908101604052809291908181526020016000905b828210156106715760008481526020908190206040805160a081018252600586029092018054835260018101546001600160a01b03169383019390935260028301549082015260038201805491929160608401919061054e90610a55565b80601f016020809104026020016040519081016040528092919081815260200182805461057a90610a55565b80156105c75780601f1061059c576101008083540402835291602001916105c7565b820191906000526020600020905b8154815290600101906020018083116105aa57829003601f168201915b505050505081526020016004820180546105e090610a55565b80601f016020809104026020016040519081016040528092919081815260200182805461060c90610a55565b80156106595780601f1061062e57610100808354040283529160200191610659565b820191906000526020600020905b81548152906001019060200180831161063c57829003601f168201915b505050505081525050815260200190600101906104f0565b50505050905090565b610682610759565b600080546040516001600160a01b039091169047908381818185875af1925050503d80600081146106cf576040519150601f19603f3d011682016040523d82523d6000602084013e6106d4565b606091505b505090508061071b5760405162461bcd60e51b81526020600482015260136024820152725472616e73616374696f6e206661696c65642160681b60448201526064016101d3565b50565b610726610759565b6001600160a01b03811661075057604051631e4fbdf760e01b8152600060048201526024016101d3565b61071b81610786565b6000546001600160a01b0316331461036a5760405163118cdaa760e01b81523360048201526024016101d3565b600080546001600160a01b038381166001600160a01b0319831681178455604051919092169283917f8be0079c531659141344cd1fd0a4f28419497f9722a3daafe3b4186f6b6457e09190a35050565b60008083601f8401126107e857600080fd5b50813567ffffffffffffffff81111561080057600080fd5b60208301915083602082850101111561081857600080fd5b9250929050565b6000806000806040858703121561083557600080fd5b843567ffffffffffffffff8082111561084d57600080fd5b610859888389016107d6565b9096509450602087013591508082111561087257600080fd5b5061087f878288016107d6565b95989497509550505050565b60006020828403121561089d57600080fd5b5035919050565b6000815180845260005b818110156108ca576020818501810151868301820152016108ae565b506000602082860101526020601f19601f83011685010191505092915050565b85815260018060a01b038516602082015283604082015260a06060820152600061091760a08301856108a4565b828103608084015261092981856108a4565b98975050505050505050565b60006020808301818452808551808352604092508286019150828160051b87010184880160005b838110156109da57888303603f19018552815180518452878101516001600160a01b031688850152868101518785015260608082015160a082870181905291906109a8838801826108a4565b92505050608080830151925085820381870152506109c681836108a4565b96890196945050509086019060010161095c565b509098975050505050505050565b6000602082840312156109fa57600080fd5b81356001600160a01b0381168114610a1157600080fd5b9392505050565b600060018201610a3857634e487b7160e01b600052601160045260246000fd5b5060010190565b634e487b7160e01b600052604160045260246000fd5b600181811c90821680610a6957607f821691505b602082108103610a8957634e487b7160e01b600052602260045260246000fd5b50919050565b601f821115610ad957600081815260208120601f850160051c81016020861015610ab65750805b601f850160051c820191505b81811015610ad557828155600101610ac2565b5050505b505050565b815167ffffffffffffffff811115610af857610af8610a3f565b610b0c81610b068454610a55565b84610a8f565b602080601f831160018114610b415760008415610b295750858301515b600019600386901b1c1916600185901b178555610ad5565b600085815260208120601f198616915b82811015610b7057888601518255948401946001909101908401610b51565b5085821015610b8e5787850151600019600388901b60f8161c191681555b5050505050600190811b01905550565b81835281816020850137506000828201602090810191909152601f909101601f19169091010190565b60018060a01b0387168152856020820152608060408201526000610bef608083018688610b9e565b8281036060840152610c02818587610b9e565b999850505050505050505056fea2646970667358221220dfe9ad4dab1d091743d3c166d0d72bba48fe9b96b64600e38ce91d16c2bcd2db64736f6c63430008140033",
  "devdoc": {
    "errors": {
      "OwnableInvalidOwner(address)": [
        {
          "details": "The owner is not a valid owner account. (eg. `address(0)`)"
        }
      ],
      "OwnableUnauthorizedAccount(address)": [
        {
          "details": "The caller account is not authorized to perform an operation."
        }
      ]
    },
    "kind": "dev",
    "methods": {
      "owner()": {
        "details": "Returns the address of the current owner."
      },
      "renounceOwnership()": {
        "details": "Leaves the contract without owner. It will not be possible to call `onlyOwner` functions. Can only be called by the current owner. NOTE: Renouncing ownership will leave the contract without an owner, thereby disabling any functionality that is only available to the owner."
      },
      "transferOwnership(address)": {
        "details": "Transfers ownership of the contract to a new account (`newOwner`). Can only be called by the current owner."
      }
    },
    "version": 1
  },
  "userdoc": {
    "kind": "user",
    "methods": {},
    "version": 1
  },
  "storageLayout": {
    "storage": [
      {
        "astId": 8,
        "contract": "contracts/Coffee.sol:Coffee",
        "label": "_owner",
        "offset": 0,
        "slot": "0",
        "type": "t_address"
      },
      {
        "astId": 197,
        "contract": "contracts/Coffee.sol:Coffee",
        "label": "Memos",
        "offset": 0,
        "slot": "1",
        "type": "t_array(t_struct(Memo)191_storage)dyn_storage"
      },
      {
        "astId": 199,
        "contract": "contracts/Coffee.sol:Coffee",
        "label": "memoCount",
        "offset": 0,
        "slot": "2",
        "type": "t_uint256"
      }
    ],
    "types": {
      "t_address": {
        "encoding": "inplace",
        "label": "address",
        "numberOfBytes": "20"
      },
      "t_array(t_struct(Memo)191_storage)dyn_storage": {
        "base": "t_struct(Memo)191_storage",
        "encoding": "dynamic_array",
        "label": "struct Memo[]",
        "numberOfBytes": "32"
      },
      "t_string_storage": {
        "encoding": "bytes",
        "label": "string",
        "numberOfBytes": "32"
      },
      "t_struct(Memo)191_storage": {
        "encoding": "inplace",
        "label": "struct Memo",
        "members": [
          {
            "astId": 182,
            "contract": "contracts/Coffee.sol:Coffee",
            "label": "id",
            "offset": 0,
            "slot": "0",
            "type": "t_uint256"
          },
          {
            "astId": 184,
            "contract": "contracts/Coffee.sol:Coffee",
            "label": "from",
            "offset": 0,
            "slot": "1",
            "type": "t_address"
          },
          {
            "astId": 186,
            "contract": "contracts/Coffee.sol:Coffee",
            "label": "timestamp",
            "offset": 0,
            "slot": "2",
            "type": "t_uint256"
          },
          {
            "astId": 188,
            "contract": "contracts/Coffee.sol:Coffee",
            "label": "name",
            "offset": 0,
            "slot": "3",
            "type": "t_string_storage"
          },
          {
            "astId": 190,
            "contract": "contracts/Coffee.sol:Coffee",
            "label": "message",
            "offset": 0,
            "slot": "4",
            "type": "t_string_storage"
          }
        ],
        "numberOfBytes": "160"
      },
      "t_uint256": {
        "encoding": "inplace",
        "label": "uint256",
        "numberOfBytes": "32"
      }
    }
  }
}